{
  "contractName": "NFTMinter",
  "abi": [
    {
      "inputs": [],
      "stateMutability": "nonpayable",
      "type": "constructor"
    },
    {
      "anonymous": false,
      "inputs": [
        {
          "indexed": true,
          "internalType": "address",
          "name": "owner",
          "type": "address"
        },
        {
          "indexed": true,
          "internalType": "address",
          "name": "approved",
          "type": "address"
        },
        {
          "indexed": true,
          "internalType": "uint256",
          "name": "tokenId",
          "type": "uint256"
        }
      ],
      "name": "Approval",
      "type": "event"
    },
    {
      "anonymous": false,
      "inputs": [
        {
          "indexed": true,
          "internalType": "address",
          "name": "owner",
          "type": "address"
        },
        {
          "indexed": true,
          "internalType": "address",
          "name": "operator",
          "type": "address"
        },
        {
          "indexed": false,
          "internalType": "bool",
          "name": "approved",
          "type": "bool"
        }
      ],
      "name": "ApprovalForAll",
      "type": "event"
    },
    {
      "anonymous": false,
      "inputs": [
        {
          "indexed": true,
          "internalType": "address",
          "name": "from",
          "type": "address"
        },
        {
          "indexed": true,
          "internalType": "address",
          "name": "to",
          "type": "address"
        },
        {
          "indexed": true,
          "internalType": "uint256",
          "name": "tokenId",
          "type": "uint256"
        }
      ],
      "name": "Transfer",
      "type": "event"
    },
    {
      "inputs": [
        {
          "internalType": "address",
          "name": "to",
          "type": "address"
        },
        {
          "internalType": "uint256",
          "name": "tokenId",
          "type": "uint256"
        }
      ],
      "name": "approve",
      "outputs": [],
      "stateMutability": "nonpayable",
      "type": "function"
    },
    {
      "inputs": [
        {
          "internalType": "address",
          "name": "owner",
          "type": "address"
        }
      ],
      "name": "balanceOf",
      "outputs": [
        {
          "internalType": "uint256",
          "name": "",
          "type": "uint256"
        }
      ],
      "stateMutability": "view",
      "type": "function"
    },
    {
      "inputs": [
        {
          "internalType": "uint256",
          "name": "tokenId",
          "type": "uint256"
        }
      ],
      "name": "getApproved",
      "outputs": [
        {
          "internalType": "address",
          "name": "",
          "type": "address"
        }
      ],
      "stateMutability": "view",
      "type": "function"
    },
    {
      "inputs": [
        {
          "internalType": "address",
          "name": "owner",
          "type": "address"
        },
        {
          "internalType": "address",
          "name": "operator",
          "type": "address"
        }
      ],
      "name": "isApprovedForAll",
      "outputs": [
        {
          "internalType": "bool",
          "name": "",
          "type": "bool"
        }
      ],
      "stateMutability": "view",
      "type": "function"
    },
    {
      "inputs": [
        {
          "internalType": "uint256",
          "name": "",
          "type": "uint256"
        }
      ],
      "name": "meta",
      "outputs": [
        {
          "internalType": "string",
          "name": "",
          "type": "string"
        }
      ],
      "stateMutability": "view",
      "type": "function"
    },
    {
      "inputs": [],
      "name": "name",
      "outputs": [
        {
          "internalType": "string",
          "name": "",
          "type": "string"
        }
      ],
      "stateMutability": "view",
      "type": "function"
    },
    {
      "inputs": [
        {
          "internalType": "uint256",
          "name": "tokenId",
          "type": "uint256"
        }
      ],
      "name": "ownerOf",
      "outputs": [
        {
          "internalType": "address",
          "name": "",
          "type": "address"
        }
      ],
      "stateMutability": "view",
      "type": "function"
    },
    {
      "inputs": [
        {
          "internalType": "address",
          "name": "from",
          "type": "address"
        },
        {
          "internalType": "address",
          "name": "to",
          "type": "address"
        },
        {
          "internalType": "uint256",
          "name": "tokenId",
          "type": "uint256"
        }
      ],
      "name": "safeTransferFrom",
      "outputs": [],
      "stateMutability": "nonpayable",
      "type": "function"
    },
    {
      "inputs": [
        {
          "internalType": "address",
          "name": "from",
          "type": "address"
        },
        {
          "internalType": "address",
          "name": "to",
          "type": "address"
        },
        {
          "internalType": "uint256",
          "name": "tokenId",
          "type": "uint256"
        },
        {
          "internalType": "bytes",
          "name": "_data",
          "type": "bytes"
        }
      ],
      "name": "safeTransferFrom",
      "outputs": [],
      "stateMutability": "nonpayable",
      "type": "function"
    },
    {
      "inputs": [
        {
          "internalType": "address",
          "name": "operator",
          "type": "address"
        },
        {
          "internalType": "bool",
          "name": "approved",
          "type": "bool"
        }
      ],
      "name": "setApprovalForAll",
      "outputs": [],
      "stateMutability": "nonpayable",
      "type": "function"
    },
    {
      "inputs": [
        {
          "internalType": "bytes4",
          "name": "interfaceId",
          "type": "bytes4"
        }
      ],
      "name": "supportsInterface",
      "outputs": [
        {
          "internalType": "bool",
          "name": "",
          "type": "bool"
        }
      ],
      "stateMutability": "view",
      "type": "function"
    },
    {
      "inputs": [],
      "name": "symbol",
      "outputs": [
        {
          "internalType": "string",
          "name": "",
          "type": "string"
        }
      ],
      "stateMutability": "view",
      "type": "function"
    },
    {
      "inputs": [
        {
          "internalType": "uint256",
          "name": "tokenId",
          "type": "uint256"
        }
      ],
      "name": "tokenURI",
      "outputs": [
        {
          "internalType": "string",
          "name": "",
          "type": "string"
        }
      ],
      "stateMutability": "view",
      "type": "function"
    },
    {
      "inputs": [
        {
          "internalType": "address",
          "name": "from",
          "type": "address"
        },
        {
          "internalType": "address",
          "name": "to",
          "type": "address"
        },
        {
          "internalType": "uint256",
          "name": "tokenId",
          "type": "uint256"
        }
      ],
      "name": "transferFrom",
      "outputs": [],
      "stateMutability": "nonpayable",
      "type": "function"
    },
    {
      "inputs": [
        {
          "internalType": "string",
          "name": "_newMeta",
          "type": "string"
        }
      ],
      "name": "mint",
      "outputs": [],
      "stateMutability": "nonpayable",
      "type": "function"
    }
  ],
  "bytecode": "0x60806040523480156200001157600080fd5b506040518060400160405280600681526020017f4d696e74657200000000000000000000000000000000000000000000000000008152506040518060400160405280600681526020017f4e65774e46540000000000000000000000000000000000000000000000000000815250816000908051906020019062000096929190620000b8565b508060019080519060200190620000af929190620000b8565b505050620001cd565b828054620000c69062000197565b90600052602060002090601f016020900481019282620000ea576000855562000136565b82601f106200010557805160ff191683800117855562000136565b8280016001018555821562000136579182015b828111156200013557825182559160200191906001019062000118565b5b50905062000145919062000149565b5090565b5b80821115620001645760008160009055506001016200014a565b5090565b7f4e487b7100000000000000000000000000000000000000000000000000000000600052602260045260246000fd5b60006002820490506001821680620001b057607f821691505b60208210811415620001c757620001c662000168565b5b50919050565b6129f280620001dd6000396000f3fe608060405234801561001057600080fd5b50600436106100f55760003560e01c806370a0823111610097578063c87b56dd11610066578063c87b56dd14610282578063cd5cfdaf146102b2578063d85d3d27146102e2578063e985e9c5146102fe576100f5565b806370a08231146101fc57806395d89b411461022c578063a22cb4651461024a578063b88d4fde14610266576100f5565b8063095ea7b3116100d3578063095ea7b31461017857806323b872dd1461019457806342842e0e146101b05780636352211e146101cc576100f5565b806301ffc9a7146100fa57806306fdde031461012a578063081812fc14610148575b600080fd5b610114600480360381019061010f9190611874565b61032e565b60405161012191906118bc565b60405180910390f35b610132610410565b60405161013f9190611970565b60405180910390f35b610162600480360381019061015d91906119c8565b6104a2565b60405161016f9190611a36565b60405180910390f35b610192600480360381019061018d9190611a7d565b610527565b005b6101ae60048036038101906101a99190611abd565b61063f565b005b6101ca60048036038101906101c59190611abd565b61069f565b005b6101e660048036038101906101e191906119c8565b6106bf565b6040516101f39190611a36565b60405180910390f35b61021660048036038101906102119190611b10565b610771565b6040516102239190611b4c565b60405180910390f35b610234610829565b6040516102419190611970565b60405180910390f35b610264600480360381019061025f9190611b93565b6108bb565b005b610280600480360381019061027b9190611d08565b610a3c565b005b61029c600480360381019061029791906119c8565b610a9e565b6040516102a99190611970565b60405180910390f35b6102cc60048036038101906102c791906119c8565b610b45565b6040516102d99190611970565b60405180910390f35b6102fc60048036038101906102f79190611e2c565b610bf1565b005b61031860048036038101906103139190611e75565b610cbe565b60405161032591906118bc565b60405180910390f35b60007f80ac58cd000000000000000000000000000000000000000000000000000000007bffffffffffffffffffffffffffffffffffffffffffffffffffffffff1916827bffffffffffffffffffffffffffffffffffffffffffffffffffffffff191614806103f957507f5b5e139f000000000000000000000000000000000000000000000000000000007bffffffffffffffffffffffffffffffffffffffffffffffffffffffff1916827bffffffffffffffffffffffffffffffffffffffffffffffffffffffff1916145b80610409575061040882610d52565b5b9050919050565b60606000805461041f90611ee4565b80601f016020809104026020016040519081016040528092919081815260200182805461044b90611ee4565b80156104985780601f1061046d57610100808354040283529160200191610498565b820191906000526020600020905b81548152906001019060200180831161047b57829003601f168201915b5050505050905090565b60006104ad82610dbc565b6104ec576040517f08c379a00000000000000000000000000000000000000000000000000000000081526004016104e390611f88565b60405180910390fd5b6004600083815260200190815260200160002060009054906101000a900473ffffffffffffffffffffffffffffffffffffffff169050919050565b6000610532826106bf565b90508073ffffffffffffffffffffffffffffffffffffffff168373ffffffffffffffffffffffffffffffffffffffff1614156105a3576040517f08c379a000000000000000000000000000000000000000000000000000000000815260040161059a9061201a565b60405180910390fd5b8073ffffffffffffffffffffffffffffffffffffffff166105c2610e28565b73ffffffffffffffffffffffffffffffffffffffff1614806105f157506105f0816105eb610e28565b610cbe565b5b610630576040517f08c379a0000000000000000000000000000000000000000000000000000000008152600401610627906120ac565b60405180910390fd5b61063a8383610e30565b505050565b61065061064a610e28565b82610ee9565b61068f576040517f08c379a00000000000000000000000000000000000000000000000000000000081526004016106869061213e565b60405180910390fd5b61069a838383610fc7565b505050565b6106ba83838360405180602001604052806000815250610a3c565b505050565b6000806002600084815260200190815260200160002060009054906101000a900473ffffffffffffffffffffffffffffffffffffffff169050600073ffffffffffffffffffffffffffffffffffffffff168173ffffffffffffffffffffffffffffffffffffffff161415610768576040517f08c379a000000000000000000000000000000000000000000000000000000000815260040161075f906121d0565b60405180910390fd5b80915050919050565b60008073ffffffffffffffffffffffffffffffffffffffff168273ffffffffffffffffffffffffffffffffffffffff1614156107e2576040517f08c379a00000000000000000000000000000000000000000000000000000000081526004016107d990612262565b60405180910390fd5b600360008373ffffffffffffffffffffffffffffffffffffffff1673ffffffffffffffffffffffffffffffffffffffff168152602001908152602001600020549050919050565b60606001805461083890611ee4565b80601f016020809104026020016040519081016040528092919081815260200182805461086490611ee4565b80156108b15780601f10610886576101008083540402835291602001916108b1565b820191906000526020600020905b81548152906001019060200180831161089457829003601f168201915b5050505050905090565b6108c3610e28565b73ffffffffffffffffffffffffffffffffffffffff168273ffffffffffffffffffffffffffffffffffffffff161415610931576040517f08c379a0000000000000000000000000000000000000000000000000000000008152600401610928906122ce565b60405180910390fd5b806005600061093e610e28565b73ffffffffffffffffffffffffffffffffffffffff1673ffffffffffffffffffffffffffffffffffffffff16815260200190815260200160002060008473ffffffffffffffffffffffffffffffffffffffff1673ffffffffffffffffffffffffffffffffffffffff16815260200190815260200160002060006101000a81548160ff0219169083151502179055508173ffffffffffffffffffffffffffffffffffffffff166109eb610e28565b73ffffffffffffffffffffffffffffffffffffffff167f17307eab39ab6107e8899845ad3d59bd9653f200f220920489ca2b5937696c3183604051610a3091906118bc565b60405180910390a35050565b610a4d610a47610e28565b83610ee9565b610a8c576040517f08c379a0000000000000000000000000000000000000000000000000000000008152600401610a839061213e565b60405180910390fd5b610a9884848484611223565b50505050565b6060610aa982610dbc565b610ae8576040517f08c379a0000000000000000000000000000000000000000000000000000000008152600401610adf90612360565b60405180910390fd5b6000610af261127f565b90506000815111610b125760405180602001604052806000815250610b3d565b80610b1c84611296565b604051602001610b2d9291906123bc565b6040516020818303038152906040525b915050919050565b60068181548110610b5557600080fd5b906000526020600020016000915090508054610b7090611ee4565b80601f0160208091040260200160405190810160405280929190818152602001828054610b9c90611ee4565b8015610be95780601f10610bbe57610100808354040283529160200191610be9565b820191906000526020600020905b815481529060010190602001808311610bcc57829003601f168201915b505050505081565b600781604051610c0191906123e0565b908152602001604051809103902060009054906101000a900460ff1615610c2757600080fd5b600681908060018154018082558091505060019003906000526020600020016000909190919091509080519060200190610c62929190611765565b5060006001600680549050610c779190612426565b9050610c8333826113f7565b6001600783604051610c9591906123e0565b908152602001604051809103902060006101000a81548160ff0219169083151502179055505050565b6000600560008473ffffffffffffffffffffffffffffffffffffffff1673ffffffffffffffffffffffffffffffffffffffff16815260200190815260200160002060008373ffffffffffffffffffffffffffffffffffffffff1673ffffffffffffffffffffffffffffffffffffffff16815260200190815260200160002060009054906101000a900460ff16905092915050565b60007f01ffc9a7000000000000000000000000000000000000000000000000000000007bffffffffffffffffffffffffffffffffffffffffffffffffffffffff1916827bffffffffffffffffffffffffffffffffffffffffffffffffffffffff1916149050919050565b60008073ffffffffffffffffffffffffffffffffffffffff166002600084815260200190815260200160002060009054906101000a900473ffffffffffffffffffffffffffffffffffffffff1673ffffffffffffffffffffffffffffffffffffffff1614159050919050565b600033905090565b816004600083815260200190815260200160002060006101000a81548173ffffffffffffffffffffffffffffffffffffffff021916908373ffffffffffffffffffffffffffffffffffffffff160217905550808273ffffffffffffffffffffffffffffffffffffffff16610ea3836106bf565b73ffffffffffffffffffffffffffffffffffffffff167f8c5be1e5ebec7d5bd14f71427d1e84f3dd0314c0f7b2291e5b200ac8c7c3b92560405160405180910390a45050565b6000610ef482610dbc565b610f33576040517f08c379a0000000000000000000000000000000000000000000000000000000008152600401610f2a906124cc565b60405180910390fd5b6000610f3e836106bf565b90508073ffffffffffffffffffffffffffffffffffffffff168473ffffffffffffffffffffffffffffffffffffffff161480610fad57508373ffffffffffffffffffffffffffffffffffffffff16610f95846104a2565b73ffffffffffffffffffffffffffffffffffffffff16145b80610fbe5750610fbd8185610cbe565b5b91505092915050565b8273ffffffffffffffffffffffffffffffffffffffff16610fe7826106bf565b73ffffffffffffffffffffffffffffffffffffffff161461103d576040517f08c379a00000000000000000000000000000000000000000000000000000000081526004016110349061255e565b60405180910390fd5b600073ffffffffffffffffffffffffffffffffffffffff168273ffffffffffffffffffffffffffffffffffffffff1614156110ad576040517f08c379a00000000000000000000000000000000000000000000000000000000081526004016110a4906125f0565b60405180910390fd5b6110b88383836115c5565b6110c3600082610e30565b6001600360008573ffffffffffffffffffffffffffffffffffffffff1673ffffffffffffffffffffffffffffffffffffffff16815260200190815260200160002060008282546111139190612426565b925050819055506001600360008473ffffffffffffffffffffffffffffffffffffffff1673ffffffffffffffffffffffffffffffffffffffff168152602001908152602001600020600082825461116a9190612610565b92505081905550816002600083815260200190815260200160002060006101000a81548173ffffffffffffffffffffffffffffffffffffffff021916908373ffffffffffffffffffffffffffffffffffffffff160217905550808273ffffffffffffffffffffffffffffffffffffffff168473ffffffffffffffffffffffffffffffffffffffff167fddf252ad1be2c89b69c2b068fc378daa952ba7f163c4a11628f55a4df523b3ef60405160405180910390a4505050565b61122e848484610fc7565b61123a848484846115ca565b611279576040517f08c379a0000000000000000000000000000000000000000000000000000000008152600401611270906126d8565b60405180910390fd5b50505050565b606060405180602001604052806000815250905090565b606060008214156112de576040518060400160405280600181526020017f300000000000000000000000000000000000000000000000000000000000000081525090506113f2565b600082905060005b600082146113105780806112f9906126f8565b915050600a826113099190612770565b91506112e6565b60008167ffffffffffffffff81111561132c5761132b611bdd565b5b6040519080825280601f01601f19166020018201604052801561135e5781602001600182028036833780820191505090505b5090505b600085146113eb576001826113779190612426565b9150600a8561138691906127a1565b60306113929190612610565b60f81b8183815181106113a8576113a76127d2565b5b60200101907effffffffffffffffffffffffffffffffffffffffffffffffffffffffffffff1916908160001a905350600a856113e49190612770565b9450611362565b8093505050505b919050565b600073ffffffffffffffffffffffffffffffffffffffff168273ffffffffffffffffffffffffffffffffffffffff161415611467576040517f08c379a000000000000000000000000000000000000000000000000000000000815260040161145e9061284d565b60405180910390fd5b61147081610dbc565b156114b0576040517f08c379a00000000000000000000000000000000000000000000000000000000081526004016114a7906128b9565b60405180910390fd5b6114bc600083836115c5565b6001600360008473ffffffffffffffffffffffffffffffffffffffff1673ffffffffffffffffffffffffffffffffffffffff168152602001908152602001600020600082825461150c9190612610565b92505081905550816002600083815260200190815260200160002060006101000a81548173ffffffffffffffffffffffffffffffffffffffff021916908373ffffffffffffffffffffffffffffffffffffffff160217905550808273ffffffffffffffffffffffffffffffffffffffff16600073ffffffffffffffffffffffffffffffffffffffff167fddf252ad1be2c89b69c2b068fc378daa952ba7f163c4a11628f55a4df523b3ef60405160405180910390a45050565b505050565b60006115eb8473ffffffffffffffffffffffffffffffffffffffff16611752565b15611745578373ffffffffffffffffffffffffffffffffffffffff1663150b7a02611614610e28565b8786866040518563ffffffff1660e01b8152600401611636949392919061292e565b6020604051808303816000875af192505050801561167257506040513d601f19601f8201168201806040525081019061166f919061298f565b60015b6116f5573d80600081146116a2576040519150601f19603f3d011682016040523d82523d6000602084013e6116a7565b606091505b506000815114156116ed576040517f08c379a00000000000000000000000000000000000000000000000000000000081526004016116e4906126d8565b60405180910390fd5b805181602001fd5b63150b7a0260e01b7bffffffffffffffffffffffffffffffffffffffffffffffffffffffff1916817bffffffffffffffffffffffffffffffffffffffffffffffffffffffff19161491505061174a565b600190505b949350505050565b600080823b905060008111915050919050565b82805461177190611ee4565b90600052602060002090601f01602090048101928261179357600085556117da565b82601f106117ac57805160ff19168380011785556117da565b828001600101855582156117da579182015b828111156117d95782518255916020019190600101906117be565b5b5090506117e791906117eb565b5090565b5b808211156118045760008160009055506001016117ec565b5090565b6000604051905090565b600080fd5b600080fd5b60007fffffffff0000000000000000000000000000000000000000000000000000000082169050919050565b6118518161181c565b811461185c57600080fd5b50565b60008135905061186e81611848565b92915050565b60006020828403121561188a57611889611812565b5b60006118988482850161185f565b91505092915050565b60008115159050919050565b6118b6816118a1565b82525050565b60006020820190506118d160008301846118ad565b92915050565b600081519050919050565b600082825260208201905092915050565b60005b838110156119115780820151818401526020810190506118f6565b83811115611920576000848401525b50505050565b6000601f19601f8301169050919050565b6000611942826118d7565b61194c81856118e2565b935061195c8185602086016118f3565b61196581611926565b840191505092915050565b6000602082019050818103600083015261198a8184611937565b905092915050565b6000819050919050565b6119a581611992565b81146119b057600080fd5b50565b6000813590506119c28161199c565b92915050565b6000602082840312156119de576119dd611812565b5b60006119ec848285016119b3565b91505092915050565b600073ffffffffffffffffffffffffffffffffffffffff82169050919050565b6000611a20826119f5565b9050919050565b611a3081611a15565b82525050565b6000602082019050611a4b6000830184611a27565b92915050565b611a5a81611a15565b8114611a6557600080fd5b50565b600081359050611a7781611a51565b92915050565b60008060408385031215611a9457611a93611812565b5b6000611aa285828601611a68565b9250506020611ab3858286016119b3565b9150509250929050565b600080600060608486031215611ad657611ad5611812565b5b6000611ae486828701611a68565b9350506020611af586828701611a68565b9250506040611b06868287016119b3565b9150509250925092565b600060208284031215611b2657611b25611812565b5b6000611b3484828501611a68565b91505092915050565b611b4681611992565b82525050565b6000602082019050611b616000830184611b3d565b92915050565b611b70816118a1565b8114611b7b57600080fd5b50565b600081359050611b8d81611b67565b92915050565b60008060408385031215611baa57611ba9611812565b5b6000611bb885828601611a68565b9250506020611bc985828601611b7e565b9150509250929050565b600080fd5b600080fd5b7f4e487b7100000000000000000000000000000000000000000000000000000000600052604160045260246000fd5b611c1582611926565b810181811067ffffffffffffffff82111715611c3457611c33611bdd565b5b80604052505050565b6000611c47611808565b9050611c538282611c0c565b919050565b600067ffffffffffffffff821115611c7357611c72611bdd565b5b611c7c82611926565b9050602081019050919050565b82818337600083830152505050565b6000611cab611ca684611c58565b611c3d565b905082815260208101848484011115611cc757611cc6611bd8565b5b611cd2848285611c89565b509392505050565b600082601f830112611cef57611cee611bd3565b5b8135611cff848260208601611c98565b91505092915050565b60008060008060808587031215611d2257611d21611812565b5b6000611d3087828801611a68565b9450506020611d4187828801611a68565b9350506040611d52878288016119b3565b925050606085013567ffffffffffffffff811115611d7357611d72611817565b5b611d7f87828801611cda565b91505092959194509250565b600067ffffffffffffffff821115611da657611da5611bdd565b5b611daf82611926565b9050602081019050919050565b6000611dcf611dca84611d8b565b611c3d565b905082815260208101848484011115611deb57611dea611bd8565b5b611df6848285611c89565b509392505050565b600082601f830112611e1357611e12611bd3565b5b8135611e23848260208601611dbc565b91505092915050565b600060208284031215611e4257611e41611812565b5b600082013567ffffffffffffffff811115611e6057611e5f611817565b5b611e6c84828501611dfe565b91505092915050565b60008060408385031215611e8c57611e8b611812565b5b6000611e9a85828601611a68565b9250506020611eab85828601611a68565b9150509250929050565b7f4e487b7100000000000000000000000000000000000000000000000000000000600052602260045260246000fd5b60006002820490506001821680611efc57607f821691505b60208210811415611f1057611f0f611eb5565b5b50919050565b7f4552433732313a20617070726f76656420717565727920666f72206e6f6e657860008201527f697374656e7420746f6b656e0000000000000000000000000000000000000000602082015250565b6000611f72602c836118e2565b9150611f7d82611f16565b604082019050919050565b60006020820190508181036000830152611fa181611f65565b9050919050565b7f4552433732313a20617070726f76616c20746f2063757272656e74206f776e6560008201527f7200000000000000000000000000000000000000000000000000000000000000602082015250565b60006120046021836118e2565b915061200f82611fa8565b604082019050919050565b6000602082019050818103600083015261203381611ff7565b9050919050565b7f4552433732313a20617070726f76652063616c6c6572206973206e6f74206f7760008201527f6e6572206e6f7220617070726f76656420666f7220616c6c0000000000000000602082015250565b60006120966038836118e2565b91506120a18261203a565b604082019050919050565b600060208201905081810360008301526120c581612089565b9050919050565b7f4552433732313a207472616e736665722063616c6c6572206973206e6f74206f60008201527f776e6572206e6f7220617070726f766564000000000000000000000000000000602082015250565b60006121286031836118e2565b9150612133826120cc565b604082019050919050565b600060208201905081810360008301526121578161211b565b9050919050565b7f4552433732313a206f776e657220717565727920666f72206e6f6e657869737460008201527f656e7420746f6b656e0000000000000000000000000000000000000000000000602082015250565b60006121ba6029836118e2565b91506121c58261215e565b604082019050919050565b600060208201905081810360008301526121e9816121ad565b9050919050565b7f4552433732313a2062616c616e636520717565727920666f7220746865207a6560008201527f726f206164647265737300000000000000000000000000000000000000000000602082015250565b600061224c602a836118e2565b9150612257826121f0565b604082019050919050565b6000602082019050818103600083015261227b8161223f565b9050919050565b7f4552433732313a20617070726f766520746f2063616c6c657200000000000000600082015250565b60006122b86019836118e2565b91506122c382612282565b602082019050919050565b600060208201905081810360008301526122e7816122ab565b9050919050565b7f4552433732314d657461646174613a2055524920717565727920666f72206e6f60008201527f6e6578697374656e7420746f6b656e0000000000000000000000000000000000602082015250565b600061234a602f836118e2565b9150612355826122ee565b604082019050919050565b600060208201905081810360008301526123798161233d565b9050919050565b600081905092915050565b6000612396826118d7565b6123a08185612380565b93506123b08185602086016118f3565b80840191505092915050565b60006123c8828561238b565b91506123d4828461238b565b91508190509392505050565b60006123ec828461238b565b915081905092915050565b7f4e487b7100000000000000000000000000000000000000000000000000000000600052601160045260246000fd5b600061243182611992565b915061243c83611992565b92508282101561244f5761244e6123f7565b5b828203905092915050565b7f4552433732313a206f70657261746f7220717565727920666f72206e6f6e657860008201527f697374656e7420746f6b656e0000000000000000000000000000000000000000602082015250565b60006124b6602c836118e2565b91506124c18261245a565b604082019050919050565b600060208201905081810360008301526124e5816124a9565b9050919050565b7f4552433732313a207472616e73666572206f6620746f6b656e2074686174206960008201527f73206e6f74206f776e0000000000000000000000000000000000000000000000602082015250565b60006125486029836118e2565b9150612553826124ec565b604082019050919050565b600060208201905081810360008301526125778161253b565b9050919050565b7f4552433732313a207472616e7366657220746f20746865207a65726f2061646460008201527f7265737300000000000000000000000000000000000000000000000000000000602082015250565b60006125da6024836118e2565b91506125e58261257e565b604082019050919050565b60006020820190508181036000830152612609816125cd565b9050919050565b600061261b82611992565b915061262683611992565b9250827fffffffffffffffffffffffffffffffffffffffffffffffffffffffffffffffff0382111561265b5761265a6123f7565b5b828201905092915050565b7f4552433732313a207472616e7366657220746f206e6f6e20455243373231526560008201527f63656976657220696d706c656d656e7465720000000000000000000000000000602082015250565b60006126c26032836118e2565b91506126cd82612666565b604082019050919050565b600060208201905081810360008301526126f1816126b5565b9050919050565b600061270382611992565b91507fffffffffffffffffffffffffffffffffffffffffffffffffffffffffffffffff821415612736576127356123f7565b5b600182019050919050565b7f4e487b7100000000000000000000000000000000000000000000000000000000600052601260045260246000fd5b600061277b82611992565b915061278683611992565b92508261279657612795612741565b5b828204905092915050565b60006127ac82611992565b91506127b783611992565b9250826127c7576127c6612741565b5b828206905092915050565b7f4e487b7100000000000000000000000000000000000000000000000000000000600052603260045260246000fd5b7f4552433732313a206d696e7420746f20746865207a65726f2061646472657373600082015250565b60006128376020836118e2565b915061284282612801565b602082019050919050565b600060208201905081810360008301526128668161282a565b9050919050565b7f4552433732313a20746f6b656e20616c7265616479206d696e74656400000000600082015250565b60006128a3601c836118e2565b91506128ae8261286d565b602082019050919050565b600060208201905081810360008301526128d281612896565b9050919050565b600081519050919050565b600082825260208201905092915050565b6000612900826128d9565b61290a81856128e4565b935061291a8185602086016118f3565b61292381611926565b840191505092915050565b60006080820190506129436000830187611a27565b6129506020830186611a27565b61295d6040830185611b3d565b818103606083015261296f81846128f5565b905095945050505050565b60008151905061298981611848565b92915050565b6000602082840312156129a5576129a4611812565b5b60006129b38482850161297a565b9150509291505056fea2646970667358221220facecb830fb894844732c8e15032890ab3cf94024a2c3d3d853184ad2dddd8d864736f6c634300080b0033",
  "immutableReferences": {},
  "source": "// SPDX-License-Identifier: MIT\r\npragma solidity ^0.8.0;\r\n\r\nimport \"./ERC721.sol\";\r\n\r\ncontract NFTMinter is ERC721 {\r\n    string[] public meta;\r\n    mapping(string => bool) _metaExists;\r\n\r\n\r\n    constructor() ERC721(\"Minter\", \"NewNFT\") {}\r\n    \r\n    function mint(string memory _newMeta) public {\r\n        require(!_metaExists[_newMeta]);\r\n        meta.push(_newMeta);\r\n        uint _id = meta.length - 1;\r\n        \r\n        _mint(msg.sender, _id);\r\n        _metaExists[_newMeta] = true;\r\n\r\n    }\r\n\r\n}",
  "sourcePath": "C:\\Users\\Abhijeet\\Desktop\\New folder\\NFT-Marketplace\\src\\contracts\\NFTMinter.sol",
  "compiler": {
    "name": "solc",
    "version": "0.8.11+commit.d7f03943.Emscripten.clang"
  },
  "schemaVersion": "3.4.4",
  "updatedAt": "2022-02-12T06:15:00.863Z",
  "devdoc": {
    "kind": "dev",
    "methods": {
      "approve(address,uint256)": {
        "details": "See {IERC721-approve}."
      },
      "balanceOf(address)": {
        "details": "See {IERC721-balanceOf}."
      },
      "getApproved(uint256)": {
        "details": "See {IERC721-getApproved}."
      },
      "isApprovedForAll(address,address)": {
        "details": "See {IERC721-isApprovedForAll}."
      },
      "name()": {
        "details": "See {IERC721Metadata-name}."
      },
      "ownerOf(uint256)": {
        "details": "See {IERC721-ownerOf}."
      },
      "safeTransferFrom(address,address,uint256)": {
        "details": "See {IERC721-safeTransferFrom}."
      },
      "safeTransferFrom(address,address,uint256,bytes)": {
        "details": "See {IERC721-safeTransferFrom}."
      },
      "setApprovalForAll(address,bool)": {
        "details": "See {IERC721-setApprovalForAll}."
      },
      "supportsInterface(bytes4)": {
        "details": "See {IERC165-supportsInterface}."
      },
      "symbol()": {
        "details": "See {IERC721Metadata-symbol}."
      },
      "tokenURI(uint256)": {
        "details": "See {IERC721Metadata-tokenURI}."
      },
      "transferFrom(address,address,uint256)": {
        "details": "See {IERC721-transferFrom}."
      }
    },
    "version": 1
  },
  "userdoc": {
    "kind": "user",
    "methods": {},
    "version": 1
  }
}